:020000040000FA
:020000000328D3
:040002000034003492
:0A000600831203138501831603170C
:100010008801890183160313850186018701880100
:1000200089010313831285018601870188018901F3
:100030003230C5007F3086001C308800962080302A
:100040008600223088009620DF3086003E3088000F
:100050009620C50B1A283230C5007F3086003C3010
:100060008800962081308600403088009620FE303F
:1000700086003C3088009620F930860004308800E5
:100080009620F73086003C3088009620C50B2D283E
:100090003230C5007F3086003C30880096208130A9
:1000A0008600403088009620FE3086003C30880074
:1000B0009620C50B4A283230C5007F3086003C3080
:1000C0008800962081308600403088009620FE30DF
:1000D00086003C3088009620C50B5D283230C50074
:1000E0001A28000000001E30B000000000000000D0
:1000F000000000003230B10000003C30B2000000CF
:10010000B20B8028B10B7C28B00B75280800013099
:10011000C0000830C200FA30C40000000000C40B68
:100120008D28C20B8B28C00B892808000A30A0003C
:10013000000000000530A100000000000F30A20008
:10014000A20BA028A10B9C28A00B98281030A1007E
:06015000A10BA828080025
:02400E00F42C90
:02401000FF3F70
:00000001FF
